{
  "contractName": "ERC20",
  "abi": [
    {
      "inputs": [],
      "stateMutability": "nonpayable",
      "type": "constructor"
    },
    {
      "anonymous": false,
      "inputs": [
        {
          "indexed": true,
          "internalType": "address",
          "name": "owner",
          "type": "address"
        },
        {
          "indexed": true,
          "internalType": "address",
          "name": "spender",
          "type": "address"
        },
        {
          "indexed": false,
          "internalType": "uint256",
          "name": "value",
          "type": "uint256"
        }
      ],
      "name": "Approval",
      "type": "event"
    },
    {
      "anonymous": false,
      "inputs": [
        {
          "indexed": true,
          "internalType": "address",
          "name": "from",
          "type": "address"
        },
        {
          "indexed": true,
          "internalType": "address",
          "name": "to",
          "type": "address"
        },
        {
          "indexed": false,
          "internalType": "uint256",
          "name": "value",
          "type": "uint256"
        }
      ],
      "name": "Transfer",
      "type": "event"
    },
    {
      "inputs": [],
      "name": "_totalSupply",
      "outputs": [
        {
          "internalType": "uint256",
          "name": "",
          "type": "uint256"
        }
      ],
      "stateMutability": "view",
      "type": "function",
      "constant": true
    },
    {
      "inputs": [],
      "name": "decimals",
      "outputs": [
        {
          "internalType": "uint8",
          "name": "",
          "type": "uint8"
        }
      ],
      "stateMutability": "view",
      "type": "function",
      "constant": true
    },
    {
      "inputs": [],
      "name": "name",
      "outputs": [
        {
          "internalType": "string",
          "name": "",
          "type": "string"
        }
      ],
      "stateMutability": "view",
      "type": "function",
      "constant": true
    },
    {
      "inputs": [],
      "name": "symbol",
      "outputs": [
        {
          "internalType": "string",
          "name": "",
          "type": "string"
        }
      ],
      "stateMutability": "view",
      "type": "function",
      "constant": true
    },
    {
      "inputs": [],
      "name": "totalSupply",
      "outputs": [
        {
          "internalType": "uint256",
          "name": "",
          "type": "uint256"
        }
      ],
      "stateMutability": "view",
      "type": "function",
      "constant": true
    },
    {
      "inputs": [
        {
          "internalType": "address",
          "name": "tokenOwner",
          "type": "address"
        }
      ],
      "name": "balanceOf",
      "outputs": [
        {
          "internalType": "uint256",
          "name": "",
          "type": "uint256"
        }
      ],
      "stateMutability": "view",
      "type": "function",
      "constant": true
    },
    {
      "inputs": [
        {
          "internalType": "address",
          "name": "receiver",
          "type": "address"
        },
        {
          "internalType": "uint256",
          "name": "amount",
          "type": "uint256"
        }
      ],
      "name": "transfer",
      "outputs": [
        {
          "internalType": "bool",
          "name": "",
          "type": "bool"
        }
      ],
      "stateMutability": "nonpayable",
      "type": "function"
    },
    {
      "inputs": [
        {
          "internalType": "address",
          "name": "spender",
          "type": "address"
        },
        {
          "internalType": "uint256",
          "name": "amount",
          "type": "uint256"
        }
      ],
      "name": "approve",
      "outputs": [
        {
          "internalType": "bool",
          "name": "",
          "type": "bool"
        }
      ],
      "stateMutability": "nonpayable",
      "type": "function"
    },
    {
      "inputs": [
        {
          "internalType": "address",
          "name": "owner",
          "type": "address"
        },
        {
          "internalType": "address",
          "name": "spender",
          "type": "address"
        }
      ],
      "name": "allowance",
      "outputs": [
        {
          "internalType": "uint256",
          "name": "",
          "type": "uint256"
        }
      ],
      "stateMutability": "view",
      "type": "function",
      "constant": true
    },
    {
      "inputs": [
        {
          "internalType": "address",
          "name": "owner",
          "type": "address"
        },
        {
          "internalType": "address",
          "name": "buyer",
          "type": "address"
        },
        {
          "internalType": "uint256",
          "name": "amount",
          "type": "uint256"
        }
      ],
      "name": "transferFrom",
      "outputs": [
        {
          "internalType": "bool",
          "name": "",
          "type": "bool"
        }
      ],
      "stateMutability": "nonpayable",
      "type": "function"
    }
  ],
  "bytecode": "0x60806040526040518060400160405280600981526020017f6574686572737061790000000000000000000000000000000000000000000000815250600090805190602001906200005192919062000125565b506040518060400160405280600381526020017f4550540000000000000000000000000000000000000000000000000000000000815250600190805190602001906200009f92919062000125565b506012600260006101000a81548160ff021916908360ff1602179055506aa647af6b7659681d880000600355348015620000d857600080fd5b50600354600460003373ffffffffffffffffffffffffffffffffffffffff1673ffffffffffffffffffffffffffffffffffffffff168152602001908152602001600020819055506200023a565b8280546200013390620001d5565b90600052602060002090601f016020900481019282620001575760008555620001a3565b82601f106200017257805160ff1916838001178555620001a3565b82800160010185558215620001a3579182015b82811115620001a257825182559160200191906001019062000185565b5b509050620001b29190620001b6565b5090565b5b80821115620001d1576000816000905550600101620001b7565b5090565b60006002820490506001821680620001ee57607f821691505b602082108114156200020557620002046200020b565b5b50919050565b7f4e487b7100000000000000000000000000000000000000000000000000000000600052602260045260246000fd5b610f15806200024a6000396000f3fe608060405234801561001057600080fd5b50600436106100bb576000357c0100000000000000000000000000000000000000000000000000000000900480633eaaf86b116100835780633eaaf86b1461017a57806370a082311461019857806395d89b41146101c8578063a9059cbb146101e6578063dd62ed3e14610216576100bb565b806306fdde03146100c0578063095ea7b3146100de57806318160ddd1461010e57806323b872dd1461012c578063313ce5671461015c575b600080fd5b6100c8610246565b6040516100d59190610c85565b60405180910390f35b6100f860048036038101906100f39190610bc4565b6102d4565b6040516101059190610c6a565b60405180910390f35b6101166103c6565b6040516101239190610ca7565b60405180910390f35b61014660048036038101906101419190610b71565b6103d0565b6040516101539190610c6a565b60405180910390f35b610164610750565b6040516101719190610cc2565b60405180910390f35b610182610763565b60405161018f9190610ca7565b60405180910390f35b6101b260048036038101906101ad9190610b04565b610769565b6040516101bf9190610ca7565b60405180910390f35b6101d06107b2565b6040516101dd9190610c85565b60405180910390f35b61020060048036038101906101fb9190610bc4565b610840565b60405161020d9190610c6a565b60405180910390f35b610230600480360381019061022b9190610b31565b610a27565b60405161023d9190610ca7565b60405180910390f35b6000805461025390610e0b565b80601f016020809104026020016040519081016040528092919081815260200182805461027f90610e0b565b80156102cc5780601f106102a1576101008083540402835291602001916102cc565b820191906000526020600020905b8154815290600101906020018083116102af57829003601f168201915b505050505081565b600081600560003373ffffffffffffffffffffffffffffffffffffffff1673ffffffffffffffffffffffffffffffffffffffff16815260200190815260200160002060008573ffffffffffffffffffffffffffffffffffffffff1673ffffffffffffffffffffffffffffffffffffffff168152602001908152602001600020819055508273ffffffffffffffffffffffffffffffffffffffff163373ffffffffffffffffffffffffffffffffffffffff167f8c5be1e5ebec7d5bd14f71427d1e84f3dd0314c0f7b2291e5b200ac8c7c3b925846040516103b49190610ca7565b60405180910390a36001905092915050565b6000600354905090565b6000600460008573ffffffffffffffffffffffffffffffffffffffff1673ffffffffffffffffffffffffffffffffffffffff1681526020019081526020016000205482111561041e57600080fd5b600560008573ffffffffffffffffffffffffffffffffffffffff1673ffffffffffffffffffffffffffffffffffffffff16815260200190815260200160002060003373ffffffffffffffffffffffffffffffffffffffff1673ffffffffffffffffffffffffffffffffffffffff168152602001908152602001600020548211156104a757600080fd5b6104f982600460008773ffffffffffffffffffffffffffffffffffffffff1673ffffffffffffffffffffffffffffffffffffffff16815260200190815260200160002054610aae90919063ffffffff16565b600460008673ffffffffffffffffffffffffffffffffffffffff1673ffffffffffffffffffffffffffffffffffffffff168152602001908152602001600020819055506105cb82600560008773ffffffffffffffffffffffffffffffffffffffff1673ffffffffffffffffffffffffffffffffffffffff16815260200190815260200160002060003373ffffffffffffffffffffffffffffffffffffffff1673ffffffffffffffffffffffffffffffffffffffff16815260200190815260200160002054610aae90919063ffffffff16565b600560008673ffffffffffffffffffffffffffffffffffffffff1673ffffffffffffffffffffffffffffffffffffffff16815260200190815260200160002060003373ffffffffffffffffffffffffffffffffffffffff1673ffffffffffffffffffffffffffffffffffffffff1681526020019081526020016000208190555061069d82600460008673ffffffffffffffffffffffffffffffffffffffff1673ffffffffffffffffffffffffffffffffffffffff16815260200190815260200160002054610ac490919063ffffffff16565b600460008573ffffffffffffffffffffffffffffffffffffffff1673ffffffffffffffffffffffffffffffffffffffff168152602001908152602001600020819055508273ffffffffffffffffffffffffffffffffffffffff168473ffffffffffffffffffffffffffffffffffffffff167fddf252ad1be2c89b69c2b068fc378daa952ba7f163c4a11628f55a4df523b3ef8460405161073d9190610ca7565b60405180910390a3600190509392505050565b600260009054906101000a900460ff1681565b60035481565b6000600460008373ffffffffffffffffffffffffffffffffffffffff1673ffffffffffffffffffffffffffffffffffffffff168152602001908152602001600020549050919050565b600180546107bf90610e0b565b80601f01602080910402602001604051908101604052809291908181526020018280546107eb90610e0b565b80156108385780601f1061080d57610100808354040283529160200191610838565b820191906000526020600020905b81548152906001019060200180831161081b57829003601f168201915b505050505081565b6000600460003373ffffffffffffffffffffffffffffffffffffffff1673ffffffffffffffffffffffffffffffffffffffff1681526020019081526020016000205482111561088e57600080fd5b6108e082600460003373ffffffffffffffffffffffffffffffffffffffff1673ffffffffffffffffffffffffffffffffffffffff16815260200190815260200160002054610aae90919063ffffffff16565b600460003373ffffffffffffffffffffffffffffffffffffffff1673ffffffffffffffffffffffffffffffffffffffff1681526020019081526020016000208190555061097582600460008673ffffffffffffffffffffffffffffffffffffffff1673ffffffffffffffffffffffffffffffffffffffff16815260200190815260200160002054610ac490919063ffffffff16565b600460008573ffffffffffffffffffffffffffffffffffffffff1673ffffffffffffffffffffffffffffffffffffffff168152602001908152602001600020819055508273ffffffffffffffffffffffffffffffffffffffff163373ffffffffffffffffffffffffffffffffffffffff167fddf252ad1be2c89b69c2b068fc378daa952ba7f163c4a11628f55a4df523b3ef84604051610a159190610ca7565b60405180910390a36001905092915050565b6000600560008473ffffffffffffffffffffffffffffffffffffffff1673ffffffffffffffffffffffffffffffffffffffff16815260200190815260200160002060008373ffffffffffffffffffffffffffffffffffffffff1673ffffffffffffffffffffffffffffffffffffffff16815260200190815260200160002054905092915050565b60008183610abc9190610d4f565b905092915050565b60008183610ad29190610cf9565b905092915050565b600081359050610ae981610eb1565b92915050565b600081359050610afe81610ec8565b92915050565b600060208284031215610b1a57610b19610e9b565b5b6000610b2884828501610ada565b91505092915050565b60008060408385031215610b4857610b47610e9b565b5b6000610b5685828601610ada565b9250506020610b6785828601610ada565b9150509250929050565b600080600060608486031215610b8a57610b89610e9b565b5b6000610b9886828701610ada565b9350506020610ba986828701610ada565b9250506040610bba86828701610aef565b9150509250925092565b60008060408385031215610bdb57610bda610e9b565b5b6000610be985828601610ada565b9250506020610bfa85828601610aef565b9150509250929050565b610c0d81610d95565b82525050565b6000610c1e82610cdd565b610c288185610ce8565b9350610c38818560208601610dd8565b610c4181610ea0565b840191505092915050565b610c5581610dc1565b82525050565b610c6481610dcb565b82525050565b6000602082019050610c7f6000830184610c04565b92915050565b60006020820190508181036000830152610c9f8184610c13565b905092915050565b6000602082019050610cbc6000830184610c4c565b92915050565b6000602082019050610cd76000830184610c5b565b92915050565b600081519050919050565b600082825260208201905092915050565b6000610d0482610dc1565b9150610d0f83610dc1565b9250827fffffffffffffffffffffffffffffffffffffffffffffffffffffffffffffffff03821115610d4457610d43610e3d565b5b828201905092915050565b6000610d5a82610dc1565b9150610d6583610dc1565b925082821015610d7857610d77610e3d565b5b828203905092915050565b6000610d8e82610da1565b9050919050565b60008115159050919050565b600073ffffffffffffffffffffffffffffffffffffffff82169050919050565b6000819050919050565b600060ff82169050919050565b60005b83811015610df6578082015181840152602081019050610ddb565b83811115610e05576000848401525b50505050565b60006002820490506001821680610e2357607f821691505b60208210811415610e3757610e36610e6c565b5b50919050565b7f4e487b7100000000000000000000000000000000000000000000000000000000600052601160045260246000fd5b7f4e487b7100000000000000000000000000000000000000000000000000000000600052602260045260246000fd5b600080fd5b6000601f19601f8301169050919050565b610eba81610d83565b8114610ec557600080fd5b50565b610ed181610dc1565b8114610edc57600080fd5b5056fea2646970667358221220fbdb3f97e164cf46f74a3b3fea246b64be0a02cc2a3f0736a7d21269d6228acb64736f6c63430008070033",
  "immutableReferences": {},
  "source": "// SPDX-License-Identifier: MIT\r\npragma solidity >=0.4.22 <0.9.0;\r\n\r\nimport \"./SafeMath.sol\";\r\nimport \"./IERC20.sol\";\r\n\r\ncontract ERC20 is IERC20 {\r\n    string public name = \"etherspay\";\r\n    string public symbol = \"EPT\";\r\n    uint8 public decimals = 18;\r\n    uint256 public _totalSupply = 201020210 ether; // 201 million tokens\r\n\r\n    using SafeMath for uint256;\r\n\r\n    mapping(address => uint256) balances;\r\n    mapping(address => mapping (address => uint256)) allowed;\r\n\r\n    constructor() {\r\n        balances[msg.sender] = _totalSupply;\r\n    }\r\n\r\n    function totalSupply() public override view returns (uint256) {\r\n        return _totalSupply;\r\n    }\r\n\r\n    function balanceOf(address tokenOwner) public override view returns (uint256) {\r\n        return balances[tokenOwner];\r\n    }\r\n\r\n    function transfer(address receiver, uint256 amount) public override returns (bool) {\r\n        require(amount <= balances[msg.sender]);\r\n        \r\n        balances[msg.sender] = balances[msg.sender].sub(amount);\r\n        balances[receiver] = balances[receiver].add(amount);\r\n        \r\n        emit Transfer(msg.sender, receiver, amount);\r\n        return true;\r\n    }\r\n\r\n    function approve(address spender, uint256 amount) public override returns (bool) {\r\n        allowed[msg.sender][spender] = amount;\r\n        emit Approval(msg.sender, spender, amount);\r\n        return true;\r\n    }\r\n\r\n    function allowance(address owner, address spender) public override view returns (uint) {\r\n        return allowed[owner][spender];\r\n    }\r\n\r\n    function transferFrom(address owner, address buyer, uint256 amount) public override returns (bool) {\r\n        require(amount <= balances[owner]);\r\n        require(amount <= allowed[owner][msg.sender]);\r\n\r\n        balances[owner] = balances[owner].sub(amount);\r\n        allowed[owner][msg.sender] = allowed[owner][msg.sender].sub(amount);\r\n        \r\n        balances[buyer] = balances[buyer].add(amount);\r\n        emit Transfer(owner, buyer, amount);\r\n        return true;\r\n    }\r\n\r\n}",
  "sourcePath": "G:\\Coding\\Blockchain Development\\etherspay\\token\\contracts\\Token.sol",
  "compiler": {
    "name": "solc",
    "version": "0.8.7+commit.e28d00a7.Emscripten.clang"
  },
  "schemaVersion": "3.4.3",
  "updatedAt": "2021-10-20T18:38:41.331Z",
  "networkType": "ethereum",
  "devdoc": {
    "kind": "dev",
    "methods": {},
    "version": 1
  },
  "userdoc": {
    "kind": "user",
    "methods": {},
    "version": 1
  }
}